{
  "contractName": "Tracking",
  "abi": [
    {
      "constant": true,
      "inputs": [],
      "name": "owner",
      "outputs": [
        {
          "name": "",
          "type": "address"
        }
      ],
      "payable": false,
      "stateMutability": "view",
      "type": "function"
    },
    {
      "constant": true,
      "inputs": [
        {
          "name": "",
          "type": "uint256"
        }
      ],
      "name": "entries",
      "outputs": [
        {
          "name": "rfid",
          "type": "string"
        },
        {
          "name": "latitude",
          "type": "string"
        },
        {
          "name": "longitude",
          "type": "string"
        },
        {
          "name": "timestamp",
          "type": "uint256"
        }
      ],
      "payable": false,
      "stateMutability": "view",
      "type": "function"
    },
    {
      "inputs": [],
      "payable": false,
      "stateMutability": "nonpayable",
      "type": "constructor"
    },
    {
      "anonymous": false,
      "inputs": [
        {
          "indexed": false,
          "name": "_rfid",
          "type": "string"
        },
        {
          "indexed": false,
          "name": "_latitude",
          "type": "string"
        },
        {
          "indexed": false,
          "name": "_longitude",
          "type": "string"
        },
        {
          "indexed": false,
          "name": "_timestamp",
          "type": "uint256"
        }
      ],
      "name": "newEntryEvent",
      "type": "event"
    },
    {
      "constant": false,
      "inputs": [
        {
          "name": "_rfid",
          "type": "string"
        },
        {
          "name": "_latitude",
          "type": "string"
        },
        {
          "name": "_longitude",
          "type": "string"
        },
        {
          "name": "_timestamp",
          "type": "uint256"
        }
      ],
      "name": "track",
      "outputs": [],
      "payable": false,
      "stateMutability": "nonpayable",
      "type": "function"
    }
  ],
  "bytecode": "0x608060405234801561001057600080fd5b5033600160006101000a81548173ffffffffffffffffffffffffffffffffffffffff021916908373ffffffffffffffffffffffffffffffffffffffff1602179055506108a2806100616000396000f300608060405260043610610057576000357c0100000000000000000000000000000000000000000000000000000000900463ffffffff1680630decb3a61461005c5780638da5cb5b1461015b578063b30906d4146101b2575b600080fd5b34801561006857600080fd5b50610159600480360381019080803590602001908201803590602001908080601f0160208091040260200160405190810160405280939291908181526020018383808284378201915050505050509192919290803590602001908201803590602001908080601f0160208091040260200160405190810160405280939291908181526020018383808284378201915050505050509192919290803590602001908201803590602001908080601f016020809104026020016040519081016040528093929190818152602001838380828437820191505050505050919291929080359060200190929190505050610337565b005b34801561016757600080fd5b5061017061057b565b604051808273ffffffffffffffffffffffffffffffffffffffff1673ffffffffffffffffffffffffffffffffffffffff16815260200191505060405180910390f35b3480156101be57600080fd5b506101dd600480360381019080803590602001909291905050506105a1565b60405180806020018060200180602001858152602001848103845288818151815260200191508051906020019080838360005b8381101561022b578082015181840152602081019050610210565b50505050905090810190601f1680156102585780820380516001836020036101000a031916815260200191505b50848103835287818151815260200191508051906020019080838360005b83811015610291578082015181840152602081019050610276565b50505050905090810190601f1680156102be5780820380516001836020036101000a031916815260200191505b50848103825286818151815260200191508051906020019080838360005b838110156102f75780820151818401526020810190506102dc565b50505050905090810190601f1680156103245780820380516001836020036101000a031916815260200191505b5097505050505050505060405180910390f35b61033f6107a8565b848160000181905250838160200181905250828160400181905250818160600181815250506000819080600181540180825580915050906001820390600052602060002090600402016000909192909190915060008201518160000190805190602001906103ae9291906107d1565b5060208201518160010190805190602001906103cb9291906107d1565b5060408201518160020190805190602001906103e89291906107d1565b50606082015181600301555050507f4a5f7b0f2e936b05709f143369f2b7c112950c98036497d874e3398772ebd4f58585858560405180806020018060200180602001858152602001848103845288818151815260200191508051906020019080838360005b8381101561046957808201518184015260208101905061044e565b50505050905090810190601f1680156104965780820380516001836020036101000a031916815260200191505b50848103835287818151815260200191508051906020019080838360005b838110156104cf5780820151818401526020810190506104b4565b50505050905090810190601f1680156104fc5780820380516001836020036101000a031916815260200191505b50848103825286818151815260200191508051906020019080838360005b8381101561053557808201518184015260208101905061051a565b50505050905090810190601f1680156105625780820380516001836020036101000a031916815260200191505b5097505050505050505060405180910390a15050505050565b600160009054906101000a900473ffffffffffffffffffffffffffffffffffffffff1681565b6000818154811015156105b057fe5b9060005260206000209060040201600091509050806000018054600181600116156101000203166002900480601f01602080910402602001604051908101604052809291908181526020018280546001816001161561010002031660029004801561065c5780601f106106315761010080835404028352916020019161065c565b820191906000526020600020905b81548152906001019060200180831161063f57829003601f168201915b505050505090806001018054600181600116156101000203166002900480601f0160208091040260200160405190810160405280929190818152602001828054600181600116156101000203166002900480156106fa5780601f106106cf576101008083540402835291602001916106fa565b820191906000526020600020905b8154815290600101906020018083116106dd57829003601f168201915b505050505090806002018054600181600116156101000203166002900480601f0160208091040260200160405190810160405280929190818152602001828054600181600116156101000203166002900480156107985780601f1061076d57610100808354040283529160200191610798565b820191906000526020600020905b81548152906001019060200180831161077b57829003601f168201915b5050505050908060030154905084565b608060405190810160405280606081526020016060815260200160608152602001600081525090565b828054600181600116156101000203166002900490600052602060002090601f016020900481019282601f1061081257805160ff1916838001178555610840565b82800160010185558215610840579182015b8281111561083f578251825591602001919060010190610824565b5b50905061084d9190610851565b5090565b61087391905b8082111561086f576000816000905550600101610857565b5090565b905600a165627a7a72305820013519572394eaa105b0571ca98b13a9e3ef73ea2ee06e9c645328b471fb87890029",
  "source": "pragma solidity ^0.4.14;\n\ncontract Tracking {\n    \n    struct Entry {\n        string rfid;\n        string latitude;\n        string longitude;\n        uint timestamp;\n    }\n    \n    Entry[] public entries;\n\n    event newEntryEvent(string _rfid, string _latitude, string _longitude, uint _timestamp);\n    \n    address public owner;\n    \n    constructor() public {\n        owner = msg.sender;\n    }\n\n    function track(string _rfid, string _latitude, string _longitude, uint _timestamp) public {\n        Entry memory entry;\n        \n        entry.rfid = _rfid;\n        entry.latitude = _latitude;\n        entry.longitude = _longitude;\n        entry.timestamp = _timestamp;\n        \n        entries.push(entry);\n        \n        emit newEntryEvent(_rfid, _latitude, _longitude, _timestamp);\n    }\n\n}",
  "sourcePath": "/Users/pierremurasso/Documents/Projets/node-eth-rfid/ng-truffle-box/contracts/Tracking.sol",
  "compiler": {
    "name": "solc",
    "version": "0.4.24+commit.e67f0147.Emscripten.clang"
  },
  "schemaVersion": "2.0.1",
  "updatedAt": "2018-12-07T10:48:07.311Z"
}